S00C00004C3433312E7372656334
S3150800000000C0002085340008C5080008C908000893
S31508000010CD080008D1080008D5080008000000002F
S315080000200000000000000000000000008131000808
S31508000030D908000800000000B13100085D31000849
S31508000040D5340008D5340008D5340008D53400085E
S31508000050D5340008D5340008D5340008D53400084E
S31508000060D5340008D5340008D5340008DD08000862
S31508000070ED080008FD0800080D0900081D0900081C
S31508000080D5340008D5340008D5340008D53400081E
S31508000090D5340008D5340008D5340008D53400080E
S315080000A0D53400082D090008D5340008D5340008D1
S315080000B0D53400080000000000000000D534000810
S315080000C0D5340008D5340008D5340008D5340008DE
S315080000D0D5340008D5340008D5340008D5340008CE
S315080000E0D5340008D53400080000000000000000E0
S315080000F000000000000000000000000000000000F2
S3150800010000000000D534000800000000D5340008BF
S315080001100000000000000000D5340008D5340008AF
S31508000120D5340008D5340008D5340008D53400087D
S31508000130D5340008000000000000000000000000A0
S31508000140D5340008D5340008D5340008000000006E
S31508000150D5340008D5340008D5340008D53400084D
S31508000160D5340008D5340008D5340008000000004E
S31508000170D5340008D534000800000000000000004F
S31508000180D5340008D5340008D5340008000000002E
S3150800019010B5054C237833B9044B13B10448AFF3B3
S315080001A000800123237010BD10000020000000000D
S315080001B034350008084B10B51BB108490848AFF399
S315080001C000800848036803B910BD074B002BFBD015
S315080001D0BDE81040184700BF0000000014000020CA
S315080001E034350008100000200000000053B94AB951
S315080001F0002908BF00281CBF4FF0FF314FF0FF3021
S3150800020000F07EB9ADF1080C6DE904CE00F006F8F1
S31508000210DDF804E0DDE9022304B070472DE9F04774
S315080002208C460E460446089D002B50D18A42174636
S315080002306CD9B2FA82FEBEF1000F0BD0CEF12004C3
S3150800024020FA04F401FA0EF644EA060C02FA0EF74E
S3150800025000FA0EF44FEA1749220CBCFBF9F01FFA14
S3150800026087F809FB10C642EA064600FB08F3B342C4
S3150800027009D9F61900F1FF3280F02281B34240F223
S315080002801F8102383E44F61AA2B2B6FBF9F309FBFF
S31508000290136642EA064403FB08F8A04509D9E4199F
S315080002A003F1FF3280F00A81A04540F20781023B44
S315080002B03C44C8EB040443EA00400021002D62D008
S315080002C024FA0EF400232C606B60BDE8F0878B429D
S315080002D007D9002D55D0002185E841000846BDE81C
S315080002E0F087B3FA83F1002940F09080B34202D335
S315080002F0824200F2F880841A66EB03060120B446AF
S31508000300002D40D085E81010BDE8F08712B9012706
S31508000310B7FBF2F7B7FA87FEBEF1000F35D1F31B2C
S315080003204FEA17481FFA87FC0121B3FBF8F0220CA5
S3150800033008FB103642EA06460CFB00F3B34207D91F
S31508000340F61900F1FF3202D2B34200F2CE8010460F
S31508000350F61AA2B2B6FBF8F308FB136642EA06449D
S315080003600CFB03FCA44507D9E41903F1FF3202D2BA
S31508000370A44500F2B5801346CCEB040443EA0040DA
S315080003809CE729462846BDE8F087CEF1200106FA03
S315080003900EF307FA0EF720FA01F94FEA1748CE408E
S315080003A049EA0309B6FBF8FA4FEA194408FB1A6644
S315080003B01FFA87FC44EA06430AFB0CF29A4200FA43
S315080003C00EF40AD9DB190AF1FF3180F087809A42C8
S315080003D040F28480AAF1020A3B449B1A1FFA89F963
S315080003E0B3FBF8F108FB113349EA034301FB0CF6AA
S315080003F09E4207D9DB1901F1FF326BD29E4269D9B9
S3150800040002393B449B1B41EA0A418EE7C1F1200EA3
S3150800041022FA0EF48B40234320FA0EF706FA01F46B
S315080004204FEA134C26FA0EF63C43B6FBFCF9270CAA
S315080004300CFB19661FFA83F847EA064609FB08F714
S31508000440B74202FA01F200FA01FA08D9F61809F1D8
S31508000450FF3041D2B7423FD9A9F102091E44F61B23
S31508000460A0B2B6FBFCF40CFB146640EA064704FB94
S3150800047008F8B84507D9FF1804F1FF3028D2B8455F
S3150800048026D9023C1F4444EA0940C8EB0707A0FBEB
S3150800049002894F4544464E4614D329D065B3BAEB74
S315080004A0040367EB060707FA0EFECB40CF404EEA79
S315080004B0030385E888000021BDE8F0871346F8E6BF
S315080004C01046E0E6B8EB020469EB03060138E5E7F7
S315080004D00446D8E7114695E78146C0E78A467CE791
S315080004E0023B3C4448E708460AE702383E442FE701
S315080004F0C245E7D33E46D1E72946BDE8F08700BFA7
S31508000500704700BF2DE9F0438BB00024059406948C
S315080005100794089409944A4BDA6C42F00402DA64A8
S31508000520DA6C02F004020092009ADA6C42F0800259
S31508000530DA64DA6C02F080020192019ADA6C42F00F
S315080005400102DA64DA6C02F001020292029ADA6CAB
S3150800055042F00202DA64DA6C02F002020392039AAB
S31508000560DA6C42F00802DA64DB6C03F008030493E1
S31508000570049BDFF8D89022464FF2F031484601F046
S3150800058035FFDFF8CC8022460B21404601F02EFFCE
S31508000590224641F60F114FF0904001F027FF294EF1
S315080005A001220321304601F021FF22464FF6FC7155
S315080005B0304601F01BFF244F22460421384601F03D
S315080005C015FF4FF2F0330593012506950794089415
S315080005D005A9484601F038FE0B23059306950794AE
S315080005E0089405A9404601F02FFE41F60F1305931E
S315080005F006950794089405A94FF0904001F024FE4B
S3150800060003230593112306930794089405A93046F6
S3150800061001F01AFE4FF6FC730593069507940894A5
S3150800062005A9304601F010FE0423059306950794A4
S31508000630089405A9384601F007FE0BB0BDE8F0831B
S315080006400010024000040048000C0048000800485A
S31508000650001C004800B583B01A4B9A6C42F00102A0
S315080006609A649B6C03F001030193019B0022052108
S315080006700B2002F005F80B2002F034F800220521C1
S315080006800C2001F0FDFF0C2002F02CF800220521B9
S315080006900D2001F0F5FF0D2002F024F800220521B7
S315080006A00E2001F0EDFF0E2002F01CF800220521B5
S315080006B00F2001F0E5FF0F2002F014F803B05DF8F3
S315080006C004FB00BF0010024008B50268024B9A42BC
S315080006D001D100F057FE08BD0044014072B6FEE79E
S315080006E008B50B480B4B03604FF4E1334360002316
S315080006F08360C36003610C2242618361C361036244
S31508000700436202F0D1FB08B1FFF7E8FF08BD00BF5E
S31508000710C40600200038014008B50B480B4B03609F
S315080007204FF4E133436000238360C36003610C2206
S3150800073042618361C3610362436202F0B5FB08B19B
S31508000740FFF7CCFF08BD00BF0405002000480040A5
S3150800075000B587B000230093019302930393049393
S3150800076005931848184A026043608360C3600361B2
S3150800077004224261037643760122C26180F8203062
S315080007808362C36280F83030436380F8383000F003
S31508000790BDFA08B1FFF7A2FF0C4B0093062301939D
S315080007A0002302937F22039204220492059369464A
S315080007B0044800F09DFB08B1FFF790FF07B05DF80D
S315080007C004FB00BF18060020000004500200300495
S315080007D008B50F480F4B03604FF48273436000233C
S315080007E083604FF44072C260036143614FF4007244
S315080007F08261C3610362436283620722C262036342
S315080008000823436302F01CFD08B1FFF767FF08BD24
S31508000810900700200030014000B597B0442200211F
S3150800082005A802F07FFE0023009301930293039329
S3150800083004934FF4007001F0C9FE08B1FFF74EFFAC
S31508000840022305934FF480720892102209920F939F
S315080008501093012211920A221292072213921493DC
S31508000860159305A800F044FE08B1FFF737FF0F23DC
S315080008700093032301930023029303930493042113
S31508000880684601F085F908B1FFF728FF17B05DF84B
S3150800089004FB00BF08B500F067FD02F043FDFFF753
S315080008A0BBFFFFF72FFEFFF7D5FEFFF719FFFFF790
S315080008B033FFFFF74DFFFFF78BFF40F2D24002F000
S315080008C0BDFDFEE7FEE700BFFEE700BFFEE700BF8F
S315080008D0FEE700BFFEE700BF704700BF08B5024845
S315080008E001F00AFE08BD00BF4807002008B5024807
S315080008F001F002FE08BD00BF8805002008B50248C1
S3150800090001F0FAFD08BD00BFBC04002008B5024886
S3150800091001F0F2FD08BD00BFD005002008B5024869
S3150800092001F0EAFD08BD00BF7C06002008B50248B4
S3150800093001F026FF08BD00BFF407002000B583B00C
S315080009400D4B1A6E42F001021A661A6E02F0010287
S315080009500092009A9A6D42F080529A659B6D03F058
S3150800096080530193019B00220F216FF0010001F0D3
S3150800097087FE03B05DF804FB0010024070B5A0B016
S31508000980044600211B911C911D911E911F915C220A
S3150800099004A802F0C7FD2268324B9A425FD14FF491
S315080009A0804304934FF08053189302230593012242
S315080009B00692082207920722089209930A934FF093
S315080009C080730B9304A801F0B1FA08B1FFF786FE0D
S315080009D0254BDA6C42F40052DA64DA6C02F40052FF
S315080009E00192019ADA6C42F00402DA64DA6C02F0D7
S315080009F004020292029ADA6C42F00102DA64DB6CB3
S31508000A0003F001030393039B0F231B930B261C96EA
S31508000A1000251D951BA9154801F016FC10231B93EC
S31508000A201C961D951BA94FF0904001F00DFC10482F
S31508000A30104B036045608560C560802303614FF4F1
S31508000A40807343614FF480638361C561056201F079
S31508000A50D3FC08B1FFF742FE054BE3649C6220B065
S31508000A6070BD00BF00000450001002400008004896
S31508000A70480700200800024000B589B00023039308
S31508000A8004930593069307930268134B9A4220D161
S31508000A9003F560431A6E42F480521A661A6E02F41F
S31508000AA080520192019ADA6C42F00102DA64DB6C38
S31508000AB003F001030293029BE023039302230493AA
S31508000AC0032306930523079303A94FF0904001F0EB
S31508000AD0BBFB09B05DF804FB0030014070B5A0B05F
S31508000AE0044600211B911C911D911E911F915C22A9
S31508000AF004A802F017FD23685A4A934257D120A842
S31508000B00012340F8703D01F011FA08B1FFF7E6FD40
S31508000B10554B1A6E42F480421A661A6E02F48042E7
S31508000B200092009ADA6C42F00102DA64DB6C03F098
S31508000B3001030193019B4FF4C0631B9302261C9685
S31508000B4000251D9503231E9307231F931BA94FF00A
S31508000B50904001F079FB4548454B03604660856047
S31508000B60C5608023036145618561C561056201F041
S31508000B7043FC08B1FFF7B2FD3C4B23679C623D4836
S31508000B803D4B036002234360102383600023C36048
S31508000B908022026143618361C361036201F02CFC18
S31508000BA008B1FFF79BFD334BE3669C6258E0334A76
S31508000BB0934255D120A8042340F8703D01F0B6F9B8
S31508000BC008B1FFF78BFD284B9A6D42F480229A658F
S31508000BD09A6D02F480220292029ADA6C42F00402BA
S31508000BE0DA64DB6C03F004030393039B4FF440635E
S31508000BF01B9302261C9600251D9503231E93072387
S31508000C001F931BA91E4801F01FFB1E481E4B0360BD
S31508000C1046608560C5608023036145618561C5615D
S31508000C20056201F0E9FB08B1FFF758FD154B23678C
S31508000C309C621648164B03600223436010238360A8
S31508000C400023C3608022026143618361C36103623A
S31508000C5001F0D2FB08B1FFF741FD0C4BE3669C623D
S31508000C6020B070BD00380140001002407C0600200C
S31508000C7058000240D00500204400024000480040C9
S31508000C8000080048BC040020300002408805002007
S31508000C901C00024000B589B000220146192001F067
S31508000CA0EFFC192001F01EFD144B1A6E42F40032B7
S31508000CB01A661B6E03F400330193019B02A903A86D
S31508000CC001F058F801F044F80D4BA3FB00239B0CE8
S31508000CD0013B0C480C4A026040F2E732C2604360AE
S31508000CE000230361836001F04BFE18B9054801F043
S31508000CF009FD00E0012009B05DF804FB0010024080
S31508000D0083DE1B43F40700200044014030B583B05E
S31508000D1000230193002800F0DD800446436D2BB9BB
S31508000D20FFF72CFE0023A36584F8503022689368E9
S31508000D3013F0005300D001232BB1936823F020430E
S31508000D4023F03F0393602268936813F0805300D022
S31508000D500123C3B9936823F0104323F03F0343F0FC
S31508000D60805393605D4B1B689B095D4AA2FB032376
S31508000D709B0901335B00019302E0019B013B019350
S31508000D80019B002BF9D12268936813F0805300D099
S31508000D9001234BB9636D43F010036365A36D43F0FC
S31508000DA00103A365012000E00020936813F0040303
S31508000DB000D00123616D11F0100F40F08580002BE3
S31508000DC040F08280636D23F4817343F00203636508
S31508000DD0936813F0010F0BD1424B9B6813F0010F78
S31508000DE006D16168404A936823F47C130B439360E9
S31508000DF0627E636B43EA4232E3681A43A36813438D
S31508000E0094F8202043EA0243012A03D1626A013A90
S31508000E1043EA4243A26A22B102F47072E16A0A43C3
S31508000E2013432168CD68314A2A401343CB602168B1
S31508000E308B6813F0040300D001238A6812F00802B5
S31508000E4000D0012243BB3ABB257E94F830305B00C4
S31508000E5043EA8535CA6822F4804323F002032B430C
S31508000E60CB6094F83830012B11D125682B6923F40F
S31508000E70FF6222F00402E16B236C1943636C194389
S31508000E80A36C0B43134343F001032B6104E0226870
S31508000E90136923F0010313612369012B08D1216823
S31508000EA00B6B23F00F02E369013B13430B6304E06A
S31508000EB02268136B23F00F031363636D23F0030398
S31508000EC043F00103636506E0636D43F01003636551
S31508000ED0012000E0012003B030BD00BF080000205B
S31508000EE0632D3E05000004500003045007C0F0FFC0
S31508000EF0F0B482B00023019390F85030012B00F033
S31508000F001E82012380F8503003689B6813F004039F
S31508000F1000D00123002B40F0FC814B68052B15D827
S31508000F20023B032B10D8DFE803F00205080B0C235D
S31508000F304B600BE012234B6008E018234B6005E07A
S31508000F404FF480734B6001E006234B6006684D68DA
S31508000F500B6830362C0AA40004F00C04325905F04C
S31508000F601F051F27AF4022EA0707C3F3846202FA68
S31508000F7005F33B4333510468A36813F0040300D018
S31508000F800123A26812F0080200D00122002B40F0CB
S31508000F909280002A40F08F800D688A6814346B0EA0
S31508000FA09B0003F00403E758C5F304550726AE4033
S31508000FB027EA0606AA403243E2504C690268D3681B
S31508000FC0C3F3C1035B009C400D69042D10D00B6868
S31508000FD002F1600757F82520914E164003F0F842B3
S31508000FE044EA0203334343F0004347F8253062E0FE
S31508000FF0136E146EC4F384640B68C3F3120515B933
S31508001000C3F3846306E093FAA3F313B1B3FA83F345
S3150800101000E02023A34203D1136E23F00043136696
S315080010200468636E626EC2F384620B68C3F31205CA
S3150800103015B9C3F3846306E093FAA3F313B1B3FABD
S3150800104083F300E02023934203D1636E23F0004329
S3150800105063660468A36EA26EC2F384620B68C3F368
S31508001060120515B9C3F3846306E093FAA3F313B123
S31508001070B3FA83F300E02023934203D1A36E23F04F
S315080010800043A3660468E36EE26EC2F384620B68EB
S31508001090C3F3120515B9C3F3846306E093FAA3F301
S315080010A013B1B3FA83F300E02023934203D1E36E2E
S315080010B023F00043E3660468A36813F0010F40F0C9
S315080010C0D2800B68CA68D4F8B050C3F3120625EA72
S315080010D0060502F01806534AF2401340C3F31203FA
S315080010E02B43C4F8B030CA684F4B9A4240F0BB80D5
S315080010F005680B68C3F3120646B99A0E013202F068
S315080011001F02092A8CBF002201220DE093FAA3F2DE
S3150800111012B1B2FA82F200E02022013202F01F0276
S31508001120092A8CBF00220122FAB32EB99A0E01327F
S31508001130920602F0F8420AE093FAA3F212B1B2FA62
S3150800114082F200E020220132920602F0F84236B915
S315080011509C0E013404F01F070124BC400CE093FAEE
S31508001160A3F414B1B4FA84F400E02024013404F0A2
S315080011701F04012707FA04F422433EB99B0E0133E4
S3150800118003F01F0303EB43031B050CE093FAA3F3D9
S3150800119013B1B3FA83F300E02023013303F01F03EE
S315080011A003EB43031B0513434CE02EB99A0E013299
S315080011B0920602F0F8420AE093FAA3F212B1B2FAE2
S315080011C082F200E020220132920602F0F84236B995
S315080011D09C0E013404F01F070124BC400CE093FA6E
S315080011E0A3F414B1B4FA84F400E02024013404F022
S315080011F01F04012707FA04F4144356B99A0E01325C
S3150800120002F01F0202EB42031E3B1B0543F000736C
S3150800121017E093FAA3F34BB1B3FA83F307E000BFE1
S3150800122000F0FF03FFFF070000007F4020235A1C41
S3150800123002F01F0202EB4202A2F11E031B0543F055
S31508001240007323438C6814355A0E920002F0040288
S31508001250AF58C3F3045307269E4027EA060604FA46
S3150800126003F33343AB500B68374A134257D0374A18
S31508001270926802F0E07436498B4222D112F4000FCC
S315080012801FD10268334B9A424BD144F400042F4ACB
S31508001290936823F0E0731C4394602F4B1B689B09EB
S315080012A02E4AA2FB03239B09013303EB43039A004F
S315080012B0019202E0019B013B0193019B002BF9D1AE
S315080012C038E027498B4210D112F0807F0DD1026891
S315080012D0204B9A4227D144F080741C4A936823F025
S315080012E0E0731C439460002324E01E498B421CD102
S315080012F012F4800F1BD10268164B9A4219D144F496
S315080013008004124A936823F0E0731C439460002318
S3150800131010E0436D43F02003436501230AE00023F0
S3150800132008E0002306E0002304E0002302E000238F
S3150800133000E00023002280F85020184600E0022032
S3150800134002B0F0BC704700BF0000088000030450DC
S31508001350000052C70000045008000020632D3E0517
S31508001360000084CB0100008008B5032001F076F95F
S315080013700F20FFF78FFC18B9FFF7E0FA002008BD29
S31508001380012008BD034B1978034A13680B44136000
S31508001390704700BF0400002040080020014B186871
S315080013A0704700BF4008002030B583B00546204B83
S315080013B09B6D13F0805F02D001F000F90FE01C4C22
S315080013C0A36D43F08053A365A36D03F08053019387
S315080013D0019B01F0F3F8A36D23F08053A365B0F5E4
S315080013E0007F05D1802D0AD9A02D0AD902210FE048
S315080013F0802D08D809D0702D09D0002108E00021D9
S3150800140006E0012104E0032102E0022100E00121B7
S31508001410084A136823F007030B431360136803F0A5
S315080014200703994201D0012000E0002003B030BD37
S315080014300010024000200240294A9368D26813F03F
S315080014400C0305D002F003020C2B16D1012A14D185
S31508001450234A126812F0080F05D1214AD2F89420BF
S31508001460C2F3032203E01E4A1268C2F303121D499F
S3150800147051F8221043B100200DE0042B06D0082BAA
S3150800148007D00020014606E0084604E01648002179
S3150800149001E0164800210C2B21D110B4104BDB6853
S315080014A003F00303022B02D0032B02D002E00E49FD
S315080014B000E00E490A4CE068C0F302100130E26809
S315080014C0C2F3062202FB01F3B3FBF0F3E068C0F3B4
S315080014D0416001304000B3FBF0F05DF8044B704703
S315080014E000100240683500080024F40000127A0053
S315080014F0002800F00F83F0B583B00446A44B9D681E
S3150800150005F00C05DE6806F00306036813F0100FF5
S3150800151000F0A3801DB10C2D62D1012E60D19C4B29
S315080015201B6813F0020F03D0A369002B00F0F482A6
S31508001530206A974B1B6813F0080F04D0944B1B685E
S3150800154003F0F00305E0924BD3F894301B0903F03F
S31508001550F003834217D2FFF727FF002840F0DE8208
S315080015608B4B1A6842F008021A601A6822F0F001DA
S31508001570226A0A431A605A6822F47F42E16942EAFB
S3150800158001225A6018E0824B1A6842F008021A6073
S315080015901A6822F0F001226A0A431A605A6822F48D
S315080015A07F42E16942EA01225A602DB9206AFFF7B3
S315080015B0FBFE002840F0B482FFF73EFF744B9B68A1
S315080015C0C3F30313734AD35C03F01F03D840724B6B
S315080015D01860724B1868FFF75DFB00283DD0A1E242
S315080015E0A36933B36A4A136843F001031360FFF72C
S315080015F0D5FE074605E0FFF7D1FEC01B022800F21C
S315080016009282634B1B6813F0020FF4D0604B1A6882
S3150800161042F008021A601A6822F0F001226A0A43A8
S315080016201A605A6822F47F42E16942EA01225A6046
S3150800163013E0574A136823F001031360FFF7AEFE61
S31508001640074605E0FFF7AAFEC01B022800F26D82D6
S315080016504F4B1B6813F0020FF4D1236813F0010FE8
S3150800166052D0082D03D00C2D0AD1032E08D1484B91
S315080016701B6813F4003F47D06368002B44D156E239
S315080016806368B3F5803F05D1414A136843F4803354
S31508001690136018E0B3F5A02F0CD103F18043A3F52E
S315080016A03C331A6842F480221A601A6842F480327F
S315080016B01A6008E0364B1A6822F480321A601A68F3
S315080016C022F480221A6063687BB1FFF767FE07463B
S315080016D005E0FFF763FEC01B642800F22A822C4B44
S315080016E01B6813F4003FF4D00EE0FFF757FE0746D9
S315080016F005E0FFF753FEC01B642800F21C82244B4A
S315080017001B6813F4003FF4D1236813F0020F52D07C
S31508001710042D03D00C2D13D1022E11D11C4B1B689E
S3150800172013F4806F03D0E368002B00F00682184A92
S31508001730536823F0F853216943EA016353603AE09A
S31508001740E368E3B1124A136843F480731360FFF742
S3150800175025FE064605E0FFF721FE801B022800F25B
S31508001760EE810B4B1B6813F4806FF4D0084A53685C
S3150800177023F0F853216943EA016353601BE0044AE6
S31508001780136823F480731360FFF708FE06460DE01E
S315080017900010024050350008080000200000002014
S315080017A0FFF7FCFD801B022800F2CB81B94B1B68B2
S315080017B013F4806FF4D1236813F0080F30D06369EF
S315080017C0BBB1B44AD2F8943043F00103C2F894305E
S315080017D0FFF7E4FD064605E0FFF7E0FD801B02285B
S315080017E000F2B181AB4BD3F8943013F0020FF3D06B
S315080017F016E0A84AD2F8943023F00103C2F89430D0
S31508001800FFF7CCFD064605E0FFF7C8FD801B02285A
S3150800181000F29B819F4BD3F8943013F0020FF3D15B
S31508001820236813F0040F7FD09A4B9B6D13F0805FEB
S315080018300BD1984B9A6D42F080529A659B6D03F0D6
S3150800184080530193019B012600E00026924B1B68FA
S3150800185013F4807F13D1904A136843F4807313609E
S31508001860FFF79CFD074605E0FFF798FDC01B022819
S3150800187000F26D81884B1B6813F4807FF4D0A3684F
S31508001880012B07D1834AD2F8903043F00103C2F8FE
S3150800189090301CE0052B0DD17E4BD3F8902042F0FA
S315080018A00402C3F89020D3F8902042F00102C3F84E
S315080018B090200CE0774BD3F8902022F00102C3F871
S315080018C09020D3F8902022F00402C3F89020A36851
S315080018D093B1FFF763FD074607E0FFF75FFDC01BFF
S315080018E041F28833984200F234816A4BD3F890303B
S315080018F013F0020FF1D011E0FFF750FD074607E09D
S31508001900FFF74CFDC01B41F28833984200F2238151
S31508001910604BD3F8903013F0020FF1D126B15D4A2F
S31508001920936D23F080539365236813F0200F30D00E
S31508001930636ABBB1574AD2F8983043F00103C2F83C
S315080019409830FFF72BFD064605E0FFF727FD801BBD
S31508001950022800F202814F4BD3F8983013F0020F99
S31508001960F3D016E04B4AD2F8983023F00103C2F8B8
S315080019709830FFF713FD064605E0FFF70FFD801BBD
S31508001980022800F2EC80434BD3F8983013F0020F8C
S31508001990F3D1A36A002B00F0E480022B40F09E806E
S315080019A03C4BDB6803F00301E26A914222D103F063
S315080019B07002216B0139B2EB011F1BD103F4FE4201
S315080019C0616BB2EB012F15D103F07842A16BB2EB34
S315080019D0C16F0FD103F4C001E26B5208013AB1EBB3
S315080019E0425F07D103F0C063226C5208013AB3EB99
S315080019F0426F55D00C2D00F0B680264B1B6813F0AD
S31508001A00806F40F0B280234A136823F08073136016
S31508001A10FFF7C4FC054605E0FFF7C0FC401B02289B
S31508001A2000F2A5801B4B1B6813F0007FF4D11949FF
S31508001A30CB681A4D1D40E36A226B013A43EA02134A
S31508001A40626B43EA0222E06B4008013842EA4052E0
S31508001A50206C4008431E42EA4362A36B42EAC36312
S31508001A602B43CB600B6843F080730B60CB6843F065
S31508001A708073CB60FFF792FC044604E0FFF78EFC08
S31508001A80001B022875D8034B1B6813F0007FF5D09E
S31508001A90002077E000100240007000408C809D0115
S31508001AA0394B1B6813F0007F65D1374B1A6842F033
S31508001AB080721A60DA6842F08072DA60FFF76EFCAC
S31508001AC0044604E0FFF76AFC001B022855D82E4B93
S31508001AD01B6813F0007FF5D0002053E00C2D4ED084
S31508001AE0294A136823F080731360FFF757FC0446EE
S31508001AF004E0FFF753FC001B022842D8224B1B6860
S31508001B0013F0007FF5D1204AD168204B0B40D360F3
S31508001B10002037E001207047012033E0012031E042
S31508001B2001202FE02EE003202CE003202AE00120EC
S31508001B3028E0032026E0032024E0012022E00320F9
S31508001B4020E003201EE003201CE003201AE0032007
S31508001B5018E0032016E0032014E0032012E0032017
S31508001B6010E000200EE001200CE001200AE003202E
S31508001B7008E0032006E0002004E0032002E001203C
S31508001B8000E0032003B0F0BD00100240FCFFEEFEAB
S31508001B90002800F0AB8070B504465C4B1B6803F068
S31508001BA007038B420BD2594A136823F007030B43EA
S31508001BB01360136803F00703994240F0998023687D
S31508001BC013F0020F0CD0A268514B9B6803F0F00388
S31508001BD09A4205D94E48836823F0F003134383607D
S31508001BE00D46236813F0010F35D06368032B05D122
S31508001BF0474A126812F0007F14D17BE0022B05D108
S31508001C00434A126812F4003F0CD175E02BB9404ADA
S31508001C10126812F0020F05D170E03D4A126812F4FC
S31508001C20806F6DD03A498A6822F0030213438B60AD
S31508001C30FFF7B4FB064606E0FFF7B0FB801B41F250
S31508001C40883398425ED8324B9B6803F00C0362686F
S31508001C50B3EB820FF0D1236813F0020F0CD0A26801
S31508001C602B4B9B6803F0F0039A4205D228498B68F0
S31508001C7023F0F00313438B60244B1B6803F0070320
S31508001C809D420AD2214A136823F007032B431360A7
S31508001C90136803F007039D4236D1236813F0040F37
S31508001CA006D01B498B6823F4E062E36813438B6014
S31508001CB0236813F0080F07D0154A936823F4605376
S31508001CC0216943EAC1039360FFF7B6FB104B9B6893
S31508001CD0C3F303130F4AD35C03F01F03D8400E4B1C
S31508001CE018600E4B1868FEF7D5FF70BD01207047C7
S31508001CF0012070BD012070BD012070BD012070BD9E
S31508001D00012070BD032070BD012070BD0020024077
S31508001D10001002405035000808000020000000208E
S31508001D20014B1868704700BF0800002008B5FFF788
S31508001D30F7FF054B9B68C3F30223044AD35C03F001
S31508001D401F03D84008BD00BF0010024060350008D8
S31508001D5008B5FFF7E5FF054B9B68C3F3C223044AA2
S31508001D60D35C03F01F03D84008BD00BF0010024033
S31508001D70603500080F2303600B4B9A6802F00302D4
S31508001D8042609A6802F0F00282609A6802F4E062A1
S31508001D90C2609B68DB0803F4E0630361034B1B68BE
S31508001DA003F007030B607047001002400020024052
S31508001DB0F8B55D4BDB6813F0030F12D05A4BDB689E
S31508001DC003F003030268934241D1002A41D0564BDF
S31508001DD0DB68C3F302130133426893423BD1002404
S31508001DE03AE00368022B0AD0032B0FD0012B19D136
S31508001DF04D4A126812F0020F16D000241BE04A4A18
S31508001E00126812F4806F11D0002414E0464A126852
S31508001E1012F4003F0CD1444A126812F4802F09D0FC
S31508001E20002408E0012406E0012404E0012402E07D
S31508001E30002400E001247CB93B4EF26822F07302CC
S31508001E404568013D43EA05131343F36004E00124A2
S31508001E5002E0012400E00124002C63D10F46054668
S31508001E60314A136823F080631360FFF797FA064632
S31508001E7004E0FFF793FA801B022805D82A4B1B6853
S31508001E8013F0006FF5D100E00324002C4AD16FB996
S31508001E9025490B6923F0784222F4FE42A868EB68CC
S31508001EA0DB0643EA002313430B6120E0012F0FD121
S31508001EB01D4E336923F4C00121F4FE41A8682B693D
S31508001EC05A08013A520542EA00230B4333610EE0F1
S31508001ED0154E336923F0C06121F4FE41A8686B6989
S31508001EE05A08013A520642EA00230B4333610E4A66
S31508001EF0136843F080631360FFF750FA064604E060
S31508001F00FFF74CFA801B022805D8074B1B6813F00D
S31508001F10006FF5D000E0032424B9034A1169AB69C0
S31508001F200B4313612046F8BD001002402DE9F0412D
S31508001F3082B00446036813F4006F24D0436CB3F5EB
S31508001F40000F06D0B3F5400F01D07BB908E0002694
S31508001F500DE0A14AD36843F48033D360002606E037
S31508001F6000210430FFF724FF064600E001266EB97B
S31508001F709949D1F8883023F44002636C1343C1F8B9
S31508001F808830374603E000273E4600E03746236898
S31508001F9013F4003F76D0904B9B6D13F0805F01D110
S31508001FA0012300E0002363B18B4B9A6D42F0805207
S31508001FB09A659B6D03F080530193019B4FF00108CE
S31508001FC001E04FF00008854A136843F480731360F4
S31508001FD0FFF7E4F9054604E0FFF7E0F9401B02289D
S31508001FE005D87E4B1B6813F4807FF5D000E00326E6
S31508001FF0002E3CD1784BD3F8903013F4407315D0AB
S31508002000A26D934212D0744AD2F8903023F44073EA
S31508002010D2F8901041F48031C2F89010D2F890109E
S3150800202021F48031C2F89010C2F8903013F0010FF5
S3150800203012D0FFF7B3F9054606E0FFF7AFF9401BE4
S3150800204041F28833984206D8634BD3F8903013F0A0
S31508002050020FF2D000E003265EB95F49D1F890304E
S3150800206023F44072A36D1343C1F8903002E037465B
S3150800207000E03746B8F1000F04D0574A936D23F0B5
S3150800208080539365236813F0010F08D05249D1F89D
S31508002090883023F00302236A1343C1F88830236883
S315080020A013F0020F08D04C49D1F8883023F00C02FF
S315080020B0636A1343C1F88830236813F0040F08D005
S315080020C04549D1F8883023F03002A36A1343C1F892
S315080020D08830236813F0200F08D03F49D1F888309C
S315080020E023F44062E36A1343C1F88830236813F483
S315080020F0007F08D03849D1F8883023F44022E36BB2
S315080021001343C1F88830236813F4806F08D0324926
S31508002110D1F8883023F44012236C1343C1F8883071
S31508002120236813F0400F08D02B49D1F8883023F4E0
S315080021304052236B1343C1F88830236813F0800F8D
S3150800214008D02549D1F8883023F44042636B1343FD
S31508002150C1F88830236813F4807F08D01E49D1F867
S31508002160883023F44032A36B1343C1F888302368C0
S3150800217013F4002F1AD01849D1F8883023F040629A
S31508002180A36C1343C1F88830A36CB3F1006F04D174
S31508002190CB6843F48013CB6008E0B3F1806F05D1B8
S315080021A00121201DFFF704FE00B10746236813F43A
S315080021B0802F1ED00849D1F8883023F04062E36C9E
S315080021C01343C1F88830E36CB3F1006F08D1CB68CC
S315080021D043F48013CB600CE000100240007000400E
S315080021E0B3F1806F05D10121201DFFF7E1FD00B194
S315080021F00746236813F4804F12D01249D1F8883065
S3150800220023F04052236D1343C1F88830236DB3F190
S31508002210805F05D10221201DFFF7CAFD00B10746E0
S31508002220236813F4004F08D00649D1F8883023F004
S315080022308042636D1343C1F88830384602B0BDE862
S31508002240F08100BF00100240F0B583B00023BDE066
S3150800225001249C40224000F0B8804D6805F0030533
S31508002260013D012D15D887684FEA430E032606FA65
S315080022700EF627EA0606CD6805FA0EF5354385609B
S31508002280456825EA04044D68C5F300159D402C43AE
S3150800229044604C6804F00304032C09D0C6685F0048
S315080022A00325BD4026EA05058C68BC402C43C4605E
S315080022B04C6804F00304022C0FD1DD08083550F8E9
S315080022C0257003F00704A6000F24B44027EA040784
S315080022D00C69B4403C4340F8254005685F00032676
S315080022E0BE4025EA06064C6804F0030505FA07F41D
S315080022F0344304604C6814F4403F66D0374C256E6E
S3150800230045F001052566246E04F001040194019C3C
S315080023109E08B51C324C54F8255003F00304A4005B
S315080023200F27A74025EA0707B0F1904F10D02D4D8B
S31508002330A8420FD005F58065A8420DD005F5806541
S31508002340A8420BD005F58065A84209D1042508E006
S31508002350002506E0012504E0022502E0032500E049
S31508002360072505FA04F43C4302361D4D45F8264078
S315080023701D4CA568D44305EA04064F6817F4801F68
S3150800238001D042EA0506184DAE60ED6804EA050676
S315080023904F6817F4001F01D042EA0506124DEE6099
S315080023A06D6804EA05064F6817F4003F01D042EA53
S315080023B005060D4D6E602D682C404E6816F4803F5C
S315080023C001D042EA0504084A146001330A6832FA61
S315080023D003F47FF43DAF03B0F0BD00BF0010024028
S315080023E00000014000040048000401400AB1816170
S315080023F070478162704700BF002868D010B4034652
S315080024000168354A91420AD8344A0A443449A1FB3C
S315080024100212120992004264324A026409E0324A00
S315080024200A442F49A1FB02121209920042642F4A5C
S315080024300264022283F825201C68226822F4FF41E0
S3150800244021F070019868DA6810431A6910435A69CE
S3150800245010439A691043DA6910431A6A02430A4319
S3150800246022609A68B2F5804F29D0196C1D4A9142AC
S3150800247012D11F4908685A6C02F01C040F22A240A8
S3150800248020EA02020A600C685A68586C00F01C00C0
S31508002490824022430A6012E0164908685A6C02F024
S315080024A01C020F2404FA02F220EA02020A600C68EF
S315080024B05A68586C00F01C00824022430A600020CB
S315080024C0D863012283F8252083F8240001E001203F
S315080024D070475DF8044B704707040240F8FFFDBFDC
S315080024E0CDCCCCCC00000240F8FBFDBF0004024076
S315080024F0A8000240A804024038B5036C19680468AD
S315080025002568436C03F01C0304229A40114216D036
S3150800251015F0040F13D0236813F0200F03D1236896
S3150800252023F004032360016C436C03F01C020423AC
S3150800253093404B60036B002B3ED0984738BD022270
S315080025409A4011421BD015F0020F18D0236813F0D9
S31508002550200F06D1236823F00A032360012380F89D
S315080025602530016C436C03F01C02022393404B6038
S31508002570002380F82430C36AF3B1984738BD08228F
S3150800258002FA03F3194217D015F0080F14D023687E
S3150800259023F00E032360016C436C03F01C03012235
S315080025A002FA03F34B60C26380F82520002380F803
S315080025B02430436B03B1984738BD00BF024B1868F7
S315080025C000F4C060704700BF00700040B0F5007F9F
S315080025D027D11F4B1B6803F4C063B3F5007F30D0C7
S315080025E01B4A136823F4C06343F400731360194B42
S315080025F01A68322303FB02F3174AA2FB03239B0C38
S31508002600013300E0013B124A526912F4806F01D08F
S31508002610002BF7D10E4B5B6913F4806F13D00320A0
S3150800262070470B4B1B6803F4C063B3F5806F0CD07F
S31508002630074A136823F4C06343F4806313600020D9
S31508002640704700207047002070470020704700BF81
S31508002650007000400800002083DE1B43074AD36849
S3150800266023F4E0631B041B0C000200F4E06018432B
S3150800267040F0BF6040F40030D060704700ED00E0E5
S3150800268030B4164BDB68C3F30223C3F10704042CEA
S3150800269028BF04241D1D062D01D9DD1E00E00025D6
S315080026A0012303FA04F4013C2140A940AB40013B55
S315080026B01A400A43002808DB1201D2B200F1604032
S315080026C000F5614080F8002305E000F00F001201D4
S315080026D0D2B2034B1A5430BC704700BF00ED00E07D
S315080026E014ED00E0002808DB420900F01F00012372
S315080026F003FA00F0014B43F82200704700E100E0BE
S31508002700704700BF90F83D30DBB2012B26D102237B
S3150800271080F83D300268D36843F00103D36003684C
S31508002720114A934206D0B3F1804F03D002F5A05266
S3150800273093420DD199680D4A0A40062A10D0B2F57F
S31508002740803F0FD01A6842F001021A6000207047D5
S315080027501A6842F001021A6000207047012070478B
S315080027600020704700207047002C01400700010038
S31508002770704700BF704700BF704700BF704700BF73
S3150800278010B5044603681A6912F0020F17D0DA6802
S3150800279012F0020F13D06FF002021A6101230377B9
S315080027A003689B6913F0030F02D0FFF7E3FF04E009
S315080027B0FFF7DEFF2046FFF7DFFF002323772368B6
S315080027C01A6912F0040F19D0DA6812F0040F15D03E
S315080027D06FF004021A610223237723689B6913F4B6
S315080027E0407F03D02046FFF7C5FF05E02046FFF7E8
S315080027F0BFFF2046FFF7C0FF0023237723681A6927
S3150800280012F0080F19D0DA6812F0080F15D06FF019
S3150800281008021A61042323772368DB6913F0030F80
S3150800282003D02046FFF7A6FF05E02046FFF7A0FFE6
S315080028302046FFF7A1FF0023237723681A6912F0C1
S31508002840100F19D0DA6812F0100F15D06FF01002B9
S315080028501A61082323772368DB6913F4407F03D0C2
S315080028602046FFF787FF05E02046FFF781FF204651
S31508002870FFF782FF0023237723681A6912F0010FF6
S3150800288009D0DA6812F0010F05D06FF001021A615B
S315080028902046FDF719FF23681A6912F0800F09D040
S315080028A0DA6812F0800F05D06FF080021A612046B0
S315080028B000F09AF823681A6912F4807F09D0DA685A
S315080028C012F0800F05D06FF480721A61204600F06E
S315080028D08DF823681A6912F0400F09D0DA6812F0E9
S315080028E0400F05D06FF040021A612046FFF746FFF9
S315080028F023681A6912F0200F09D0DA6812F0200F3F
S3150800290005D06FF020021A61204600F06BF810BD62
S3150800291003681A4A904202D0B0F1804F03D123F0DF
S3150800292070034A681343154A90420AD0B0F1804FA3
S3150800293007D002F5A052904203D002F58062904279
S3150800294003D123F44073CA68134323F080034A690A
S31508002950134303608B68C3620B688362074B984214
S3150800296007D003F5A053984203D003F58063984235
S3150800297001D10B690363012343617047002C0140B1
S3150800298068B310B5044690F83D3013F0FF0F04D134
S31508002990002380F83C30FFF7B3FE022384F83D306D
S315080029A0211D2068FFF7B4FF012384F8483084F816
S315080029B03E3084F83F3084F8403084F8413084F85B
S315080029C0423084F8433084F8443084F8453084F83B
S315080029D0463084F8473084F83D30002010BD012089
S315080029E0704700BF704700BF704700BF704700BF01
S315080029F02DE9F0480446826803691A4343691A4375
S31508002A00C3691A4301680868994B034013430B606E
S31508002A1021684B6823F44052E36813434B60A1696D
S31508002A202268944B9A4201D0236A1943936823F487
S31508002A3030630B43936023688F4A934213D102F5A0
S31508002A405842D2F8882002F00302032A09D8DFE8A0
S31508002A5002F002045F06012263E0042261E0082214
S31508002A605FE010225DE0854A934218D102F5E6320E
S31508002A70D2F8882002F00C020C2A0ED8DFE802F001
S31508002A80070D0D0D090D0D0D4A0D0D0D0B0000223C
S31508002A9047E0042245E0082243E0102241E0784A54
S31508002AA0934217D102F5E432D2F8882002F03002B8
S31508002AB0102A09D001D82AB10AE0202A2CD0302AB7
S31508002AC004D005E000222CE004222AE0082228E0AF
S31508002AD0102226E0674A934220D102F5C832D2F87E
S31508002AE0882002F44062B2F5806F0BD001D83AB163
S31508002AF00CE0B2F5006F13D0B2F5406F04D005E0D4
S31508002B0000220EE004220CE008220AE0102208E067
S31508002B10022206E0022204E0022202E0102200E07D
S31508002B20022254498B4238D1082A11D8DFE802F02C
S31508002B30081005100C1010101300524800250DE05F
S31508002B40FFF7F4F8002509E0FEF776FC002505E016
S31508002B500020012502E04FF400400025002800F07F
S31508002B609A80626802EB420398427DD3B0EB023F3B
S31508002B707CD80023070E0602500816EB000B47F117
S31508002B80000C58466146FDF731FBA0F540723E4BF6
S31508002B909A427BD82368D8607DE0E369B3F5004F95
S31508002BA034D1082A15D8DFE802F0080C05141014E9
S31508002BB0141417003348002511E0FFF7B7F800256D
S31508002BC00DE0FFF7C5F8002509E0FEF735FC0025FE
S31508002BD005E00020012502E04FF40040002500280A
S31508002BE059D06268530803EB4000B0FBF2F0A0F13D
S31508002BF010024FF6EF739A424AD883B223F00F03B6
S31508002C00C0F3420018432368D86044E0082A15D860
S31508002C10DFE802F0080C05141014141417001948FC
S31508002C20002511E0FFF782F800250DE0FFF790F880
S31508002C30002509E0FEF700FC002505E00020012537
S31508002C4002E04FF40040002528B3636800EB530008
S31508002C50B0FBF3F0A0F110024FF6EF739A4219D8C1
S31508002C60236880B2D86016E0012514E0012512E039
S31508002C70F369FFEF0080004000380140004400403F
S31508002C80004800400024F400FFFC0F00012502E084
S31508002C90012500E0012500236366A3662846BDE8F2
S31508002CA0F08800BF436A13F0010F06D001684B682D
S31508002CB023F40032836A13434B60436A13F0020F0E
S31508002CC006D001684B6823F48032C36A13434B600D
S31508002CD0436A13F0040F06D001684B6823F4802278
S31508002CE0036B13434B60436A13F0080F06D0016861
S31508002CF04B6823F40042436B13434B60436A13F05B
S31508002D00100F06D001688B6823F48052836B134337
S31508002D108B60436A13F0200F06D001688B6823F492
S31508002D200052C36B13438B60436A13F0400F11D0F4
S31508002D3001684B6823F48012036C13434B60036CE1
S31508002D40B3F5801F06D101684B6823F4C002436CB3
S31508002D5013434B60436A13F0800F06D001684B6833
S31508002D6023F40022836C13434B6070472DE9F0412E
S31508002D7004460F4616469846069D53E0B5F1FF3FB2
S31508002D8050D0FEF70BFBC8EB0000854200D3EDB927
S31508002D90226852E8003F23F4D07342E80031002944
S31508002DA0F6D1226802F1080353E8003F23F0010335
S31508002DB0083242E800310029F3D12023A367E367EC
S31508002DC0002384F874300320BDE8F08123681A686C
S31508002DD012F0040F26D0DA6912F4006F22D04FF4ED
S31508002DE000621A62226852E8003F23F4D07342E870
S31508002DF000310029F6D1226802F1080353E8003FA2
S31508002E0023F00103083242E800310029F3D12023D8
S31508002E10A367E367C4F88030002384F8743003207E
S31508002E20BDE8F0812368DB6937EA03030CBF012399
S31508002E300023B342A2D00020BDE8F08130B583B0AC
S31508002E4004460023C0F88030FEF7A8FA0546236832
S31508002E501B6813F0080F0AD06FF07E4300930346F1
S31508002E6000224FF400112046FFF780FFB8B9236807
S31508002E701B6813F0040F0AD06FF07E4300932B46AD
S31508002E8000224FF480012046FFF770FF48B920233F
S31508002E90A367E3670020206684F8740002E0032035
S31508002EA000E0032003B030BD58B310B50446836F65
S31508002EB01BB980F87430FDF711FE2423A367226836
S31508002EC0136823F0010313602046FFF791FD0128DC
S31508002ED019D0636A13B12046FFF7E4FE22685368E7
S31508002EE023F4904353602268936823F02A0393607F
S31508002EF02268136843F0010313602046FFF79EFF1C
S31508002F0010BD0120704710BD034AD2F8883043F43B
S31508002F107003C2F88830704700ED00E043684B60E4
S31508002F209A688A609A6851609960086103680133F3
S31508002F3003607047036942688168916082684168E6
S31508002F4051605A68904201D182685A600022026133
S31508002F501A68013A1A601868704700BF084B1B6860
S31508002F601B6823B94FF0FF32064B1A607047044BB3
S31508002F701B68DB68DB685A68024B1A60704700BF3B
S31508002F802C000020AC040020F8B53B4B1B68002B36
S31508002F9068D13A4B1D6801351D60C5B9384B1B68A9
S31508002FA01B6843B14FF0500383F31188BFF36F8F4B
S31508002FB0BFF34F8FFEE7324A1168324B186810602C
S31508002FC01960314A136801331360FFF7C7FF2F4BA7
S31508002FD01B689D4203D2002435E0012400E000244A
S31508002FE0274B1B681B6823B94FF0FF32274B1A6023
S31508002FF029E0234B1B68DB68DE6873689D4202D2B2
S31508003000224A13601FE0371D3846FFF793FFB36A5D
S315080030101BB106F11800FFF78DFFF36A1C4A126808
S31508003020934201D91A4A136003EB83039A0039467F
S3150800303018481044FFF772FFF26A174B1B68DB6AE1
S315080030409A42CAD2CCE7144B1B68DB6A03EB8303AC
S315080030509A00104B9B58012B00D901240F4B1B6873
S3150800306033B906E00E4A136801331360002400E002
S3150800307001242046F8BD00BF9C040020A8040020B7
S315080030802C00002034000020A4040020AC040020FA
S31508003090B00400203C000020A0040020B404002056
S315080030A038000020204B1B681BB101221F4B1A60F9
S315080030B0704700221D4B1A601D4B1B680AE043B976
S315080030C04FF0500383F31188BFF36F8FBFF34F8F11
S315080030D0FEE7013B03EB83018A0016498A58002A5A
S315080030E0EDD030B40D469900CA18900028444268BD
S315080030F05468446019448A0008322A44944205D127
S31508003100606803EB83018A002A44506003EB83015D
S315080031108A0008490A445268D168074A1160044A75
S31508003120136030BC704700BF9C040020B404002024
S31508003130B00400203C000020A0040020054B1B68BA
S3150800314023B1054B1B681BB9022070470120704745
S3150800315000207047300000209C04002008B5044B6E
S315080031601B68FFF7EBFF012801D000F053F808BDF4
S3150800317010E000E000000000000000000000000071
S31508003180074B19680868B0E8F04F80F30988BFF361
S315080031906F8F4FF0000080F311887047AFF30080FF
S315080031A0A00400200000000000000000000000004D
S315080031B0EFF30980BFF36F8F154B1A681EF0100FD7
S315080031C008BF20ED108A20E9F04F10602DE90900AC
S315080031D04FF0500080F31188BFF34F8FBFF36F8F06
S315080031E0FFF760FF4FF0000080F3118809BC1968EB
S315080031F00868B0E8F04F1EF0100F08BFB0EC108A50
S3150800320080F30988BFF36F8F704700BFAFF3008064
S31508003210A004002008B54FF0500383F31188BFF3CC
S315080032206F8FBFF34F8FFFF7AFFE18B14FF0805285
S31508003230024B1A60002383F3118808BD04ED00E0F1
S3150800324000286DD0F8B50446436A33B94368B3F528
S31508003250827F05D00023C36102E000230361436136
S315080032600023A36294F85D3013F0FF0F05D1002305
S3150800327084F85C302046FDF7FFFB022384F85D30B6
S315080032802268136823F040031360E368B3F5E06F20
S3150800329001D9002601E04FF48056B3F5706F04D0CB
S315080032A0B3F5E06F01D00023A3622168636803F4D5
S315080032B08273A26802F404421343206900F00200F4
S315080032C00343676907F001073B43A56905F40075E1
S315080032D02B43E06900F0380043EA0002236A03F052
S315080032E080031343A26A02F400521A430A60206854
S315080032F0618B01F00401656A05F010052943626BCC
S3150800330002F008021143E36803F4706241EA02031B
S315080033103343436000202066012384F85D30F8BDFE
S3150800332001207047054A136843F080731360044A06
S31508003330136843F001031360704700BFFCED00E01B
S31508003340001000E070B50E461546074B1C6804448D
S3150800335004E02A46B1B20548FFF748F8024B1B6855
S31508003360E31A002BF5DC70BD041000E000040048E9
S3150800337070B50022164B27E01C78844222D10E46EF
S315080033809C785D7816E015F0800F05D1002231464D
S315080033901048FFF7D7FF04E0002231460E48FFF732
S315080033A0D1FF012231460D48FFF7CCFF6D00EDB283
S315080033B0013CE4B2002CE6D1012231460848FFF769
S315080033C0C1FF70BD03330132392AD5DD70BD00BF98
S315080033D0983500085573CB0054CD2D03547C08014D
S315080033E053F1210430B585B00D460024114BA3FBDB
S315080033F00023DB081A4603EB83035900431A04A982
S315080034002144303301F8103C10460134002AEDD12E
S3150800341006E0294604AB234413F8100CFFF7A8FF6F
S31508003420013CF6D5012229460348FFF78BFF05B074
S3150800343030BD00BFCDCCCCCCFAD3650C38B505462B
S3150800344072B6002409E003212846FFF7CBFF0122C4
S3150800345003210848FFF776FF0134012CF3DD00222B
S315080034604FF400510448FEF7C1FF044A044B1A60A2
S31508003470FEE700BF00B4C404000800480400FA05CB
S315080034800CED00E0DFF834D0FFF73EFD0C480D499F
S315080034900D4A002302E0D458C4500433C4188C42A1
S315080034A0F9D30A4A0A4C002301E013600432A24207
S315080034B0FBD300F011F8FDF7EDF9FEE700C0002098
S315080034C000000020100000204036000810000020F0
S315080034D044080020FEE7000070B50E4B0E4CE41AB7
S315080034E0A41000251E46A54204D056F82530984754
S315080034F00135F8E700F01EF8084C094BE41AA41049
S3150800350000251E46A54204D056F8253098470135B1
S31508003510F8E770BD30360008303600083436000843
S315080035203036000802440346934202D003F8011BD2
S31508003530FAE77047F8B500BFF8BC08BC9E46704766
S31508003540F8B500BFF8BC08BC9E46704700000000EE
S315080035500000000000000000010203040607080935
S315080035600000000001020304A0860100400D0300CC
S31508003570801A060000350C0040420F0080841E00A9
S3150800358000093D0000127A000024F40000366E019E
S315080035900048E801006CDC0241400242800443A076
S315080035A00444800345000146200447C0034800043C
S315080035B04900024A70044BA0034C40044DC0024E19
S315080035C080024FE00350600451D004524003530078
S315080035D0035480015520035610045760035890047D
S315080035E059B0045AC00430F8053178053238053325
S315080035F0180534080535000536800537C00538E056
S315080036000539F0052E54062CCC063F30062D8805C4
S315080036104068065F34062B50053BA8062640052F52
S30D08003620900528B00529B4063F
S30D08003628F4CBFF7F010000004E
S30D08003630B501000800000000C6
S30D080036389101000800000000E2
S31508003640100000000100000000093D000000000015
S7050800348539
